:020000040800F2
:1000000000070020CD010008E71F0008C51A0008FE
:10001000E51F0008B5030008B72000080000000035
:100020000000000000000000000000002520000883
:10003000F103000800000000E91F00082720000865
:10004000E7010008E7010008E7010008E7010008F0
:10005000E7010008E7010008E7010008E7010008E0
:10006000E7010008E7010008E7010008E7010008D0
:10007000E7010008E7010008E7010008E7010008C0
:10008000E7010008E7010008D5020008E7010008C1
:10009000E7010008E7010008E7010008E7010008A0
:1000A000E7010008E7010008E7010008E701000890
:1000B000E7010008E7010008E7010008E701000880
:1000C000E7010008E7010008E7010008E701000870
:1000D000E7010008E7010008E7010008E701000860
:1000E000E7010008E7010008E7010008E701000850
:1000F000E7010008E7010008E7010008E701000840
:10010000E7010008E7010008E7010008E70100082F
:10011000E7010008E7010008E7010008E70100081F
:10012000E7010008E7010008E7010008E70100080F
:1001300000F002F800F03AF80AA090E8000C8244BF
:100140008344AAF10107DA4501D100F02FF8AFF29C
:10015000090EBAE80F0013F0010F18BFFB1A43F0A5
:10016000010318470823000028230000103A24BF89
:1001700078C878C1FAD8520724BF30C830C144BF0C
:1001800004680C607047000000230024002500264E
:10019000103A28BF78C1FBD8520728BF30C148BFEA
:1001A0000B6070471FB51FBD10B510BD00F058F8AB
:1001B0001146FFF7F7FF01F08FFF00F076F803B468
:1001C000FFF7F2FF03BC00F07DF80000094880470C
:1001D00009480047FEE7FEE7FEE7FEE7FEE7FEE729
:1001E000FEE7FEE7FEE7FEE704480549054A064B41
:1001F00070470000B5200008310100080001002010
:100200000007002000030020000300204FF0000240
:1002100000B5134694469646203922BFA0E80C50FC
:10022000A0E80C50B1F12001BFF4F7AF090728BFD7
:10023000A0E80C5048BF0CC05DF804EB890028BF53
:1002400040F8042B08BF704748BF20F8022B11F07C
:10025000804F18BF00F8012B7047704770477047F8
:10026000754600F02BF8AE4605006946534620F06F
:100270000700854618B020B5FFF7B6FFBDE820405F
:100280004FF000064FF000074FF000084FF0000B52
:1002900021F00701AC46ACE8C009ACE8C009ACE805
:1002A000C009ACE8C0098D46704710B50446AFF3ED
:1002B00000802046BDE81040FFF781BF004870472E
:1002C000A000002001491820ABBEFEE72600020076
:1002D00070470000014800F08AB900001C000020AF
:1002E00070B5044600688168C943C90717D18168A1
:1002F00021F00101816000F0BDFC05460AE000BF6D
:1003000000F0B8FC401B022804D920688068C04374
:10031000C00706D020688068C043C007F0D0002026
:1003200070BDA06A40F01000A062E06A40F00100D9
:10033000E062012070BD0000F8B50026044600967A
:1003400000688168C943C9072DD0816841F0010167
:100350008160164816490068B0FBF1F000E0401ECD
:1003600000900028FBD100F085FC054616E000BF98
:1003700000F080FC401B022810D920688068C04330
:10038000C0070BD0A06A40F01000A062E06A40F005
:100390000100E06284F824600120F8BD20688068D4
:1003A000C043C007E4D10020F8BD000018000020C1
:1003B00040420F00FEE700001FB50020039040F60A
:1003C000B832022103A88DE8070001237F225421BF
:1003D000064800F033FD20B1044800F051FC01F064
:1003E000E1FDBDF80C0004B040BA10BD4C00002087
:1003F000704772B6FEE70000F8B500250446009588
:1004000090F82400012808D0012084F82400204618
:10041000FFF766FF060002D053E00220F8BDA06A95
:1004200020F4885040F00200A062022000F0B6FFE5
:1004300026490968B1FBF0F0400000E0401E009042
:100440000028FBD12046FFF777FF2068816841F044
:100450000801816000F00EFC074608E000F00AFC8D
:10046000C01B0A2803D920688068000715D42068BB
:1004700080680007F2D42068816841F0040181603F
:1004800000F0F8FB074612E000F0F4FBC01B0A285E
:100490000DD920688068400709D5A06A20F00200C5
:1004A00040F01000A06284F824500120F8BD2068BC
:1004B00080684007E8D4A06A20F0020040F0010004
:1004C000A06284F824503046F8BD000018000020D7
:1004D00070470000F8B50024009490F824202546C9
:1004E000012A12D0012280F824204A681F23072AFB
:1004F0000DD20668776B521E02EB820293409F4337
:100500000B6893401F43776319E00220F8BD06682B
:100510000D2A0AD2376BD21F02EB820293409F430F
:100520000B6893401F43376309E0F76A0D3A02EB0B
:10053000820293409F430B6893401F43F7620A680F
:10054000072306680A2A0AD3F7680A3A02EB42022E
:1005500093409F438B6893401F43F76008E03769DF
:1005600002EB420293409F438B6893401F433761E5
:100570000A68102A01D0112A20D1124B02689A422F
:1005800017D193681B0219D4936843F40003936056
:100590000968102912D10C490C4A0968B1FBF2F123
:1005A00001EB8101490000E0491E00910029FBD1C7
:1005B00004E0816A41F020018162012480F8245026
:1005C0002046F8BD002401401800002040420F00E2
:1005D00010B5034800F008F80249086010BD00009B
:1005E0001C000020080000200068C06C704710B597
:1005F000044600684168890626D50168890723D525
:10060000A16AC90603D4A16A41F40071A16281689C
:10061000C1F34241072910D1217B71B9416821F012
:1006200020014160A06A20F48070A062A06AC0042A
:1006300003D4A06A40F00100A0622046FFF7C8FF83
:1006400021686FF0120008602068416809062ED505
:10065000016849072BD5A16AC90603D4A16A41F4F0
:100660000051A1628168C1F30231072909D04168B4
:10067000490515D48168C1F34241072910D1217B76
:1006800071B9416821F080014160A06A20F4805076
:10069000A062A06AC00503D4A06A40F00100A06275
:1006A0002046FFF715FF21686FF00C0008602068F6
:1006B000416849060DD50068C0070AD0A06A40F419
:1006C0008030A062204600F095F821686FF00100AC
:1006D000086010BD2DE9F04104004FF000057FD007
:1006E000A06A002628B9E66284F82460204600F05B
:1006F00083F82046FFF7F4FDA16AC90600D420B1B3
:10070000A06A40F01000A0626AE0A16A21F488515A
:1007100041F00201A162334923688B42E16904D1AF
:10072000B1F5402F01D14FF40021277B4FF4807C9D
:1007300041EA470261680A43A168614508D001297E
:1007400006D0002194F814E0BEF1010F02D00AE0B7
:100750006146F7E7C7B1A76A47F02007A762E76AD3
:1007600047F00107E7625F6827F469470F435F605E
:10077000236899681C4F394011439960A16861450D
:100780000BD0012909D00CE0DFF860E0A7690EEB7F
:1007900047370F4347F40061E5E7218A0D05A5F5CA
:1007A00080152168CB6A23F470032B43CB62216848
:1007B00089680F4B1940914208D1E662A16A21F085
:1007C000020141F00101A162BDE8F081A06A20F0C0
:1007D000020040F01000A062E06A40F00100E06218
:1007E0000120F1E7003C0140FDF7E1FF00E0FFFFE1
:1007F000FE0E1FFF7047000000B585B0002100917C
:1008000001910291039100681249884220D1124857
:10081000816941F400718161816901F40071049181
:10082000816941F0100181618069694600F0100022
:1008300004900220009003200190084800F018F96D
:1008400000221146122000F077FD122000F066FD14
:1008500005B000BD0024014000100240001001401E
:1008600070B5044690F8240001280DD0012084F8CA
:1008700024002046FFF760FD02004FF0000005D085
:1008800084F82400104670BD022070BDA16A40F6B5
:100890000163994341F48071A162224D236822498A
:1008A000AB4218D10E6816F4702F14D0A66A46F425
:1008B0008016A6620E68760505D5A66A26F400564F
:1008C00046F48056A662A66AF6040AD5E66A26F0C1
:1008D0000606E66206E0A66A26F48016A6625E6850
:1008E000E9E7E06284F824006FF0020018602068F5
:1008F000436843F02003436020688368C3F34243A6
:10090000072B05D1A84208D1096811F4702F04D033
:10091000816841F480118160B4E7816841F4A001ED
:10092000F9E70000002801400424014070B50446A6
:1009300000F0A0F90546601C02D004480078044489
:1009400000F098F9401BA042FAD370BD0C000020C3
:100950002DE9F04300233E4F0F2574E001229A4019
:100960000A406ED023F00304E619D6F808809C07ED
:100970004FEA147C05FA0CF909EA0804DFF8D48080
:10098000404502D14FF0000824E0DFF8CC8040451C
:1009900002D14FF001081DE0DFF8C080404502D1D0
:1009A0004FF0020816E0DFF8B880404502D14FF062
:1009B00003080FE0DFF8AC80404502D14FF0040897
:1009C00008E0DFF8A480404502D14FF0050801E0BF
:1009D0004FF0060808FA0CF8A04515D1D6F808C063
:1009E0002CEA090CC6F808C0204E346894433460E1
:1009F000341D266896432660241D2668964326608B
:100A0000241D266896432660FF2A01D8064601E089
:100A100000F104064FEA830401D9A4F12004D6F8BA
:100A200000C005FA04F82CEA080C4FF0040808FA94
:100A300004F84CEA080CC6F800C0C46824EA0204B2
:100A4000C46003F1010331FA03F287D1BDE8F083FA
:100A50000000014000080140000C0140001001406E
:100A60000014014000180140001C01400004014036
:100A70002DE9F84FDFF8C891002409F1040A0AF1C2
:100A8000040B23460F270BF1040ED1E00125A540EE
:100A900006EA0502AA4276D1DFF8A8C14E68A6EBA5
:100AA0000C0866452BD00DDC032E34D005DC36B3A4
:100AB000012E19D0022E2FD11BE0112E16D0122E8E
:100AC0002AD119E0B8F5881F19D006DCB8F5803FA7
:100AD00015D0B8F5801F1FD111E0B8F5001F0ED05A
:100AE000B8F5041F18D10AE0CB6815E0CB681B1DD0
:100AF00012E0CB6808330FE0CB680C330CE08B6856
:100B00002BB1012B4FF0080303D0456104E004230F
:100B100002E0056100E00023FF2A01D8064601E05B
:100B200000F104064FEA840501D9A5F12005D6F8A5
:100B3000008007FA05FC28EA0C0803FA05F548EAE4
:100B40000508C6F800804D68ED0070D53E4DAE69D1
:100B500046F00106AE61AD6924F0030605F001051B
:100B600000953A4D06EB050CDCF80850A607360F49
:100B700007FA06F825EA0805DFF8D480404503D1D6
:100B80004FF0000825E052E0DFF8C880404502D170
:100B90004FF001081DE0DFF8C080404502D14FF062
:100BA000020816E0DFF8B480404502D14FF0030898
:100BB0000FE0DFF8AC80404502D14FF0040808E0B8
:100BC000DFF8A080404502D14FF0050801E04FF06A
:100BD000060808FA06F848EA0508CCF808804D68C7
:100BE000D9F80060ED034D4601D5164300E0964369
:100BF0002E604D68DAF80060AD03554601D5164306
:100C000000E096432E604D68DBF80060ED025D4623
:100C100001D5164300E096432E604D68DEF8006073
:100C2000AD02754601D5164300E096432E60641C64
:100C30000A681646E2407FF429AFBDE8F88F00004D
:100C400000040140000011100010024000000140AB
:100C500000080140000C0140001001400014014058
:100C600000180140001C01400AB1016170470904ED
:100C7000FBE7000001488068704700000C0000207E
:100C800010B5040013D0242084F83D0020680168CA
:100C900021F001010160204600F090FA002020645C
:100CA00084F83D0044F8300FA073207310BD01207C
:100CB00010BD000070B5040025D094F83D0000255B
:100CC00020B984F83C50204600F094FA242084F89F
:100CD0003D002068016821F0010101602068016881
:100CE00041F4004101602068016821F40041016085
:100CF00000F0CAFC4D4A6168914201D84C4900E0BD
:100D00004C49884201D2012070BD4B492368B0FB99
:100D1000F1F15E6826F03F060E435E606368934221
:100D200006D94FF4967359434FF47A73B1FBF3F13C
:100D30002368491C1E6A26F03F0631431962616828
:100D4000914210D84900401EB0FBF1F2521CC2F390
:100D50000B02042A01D2042022E0B0FBF1F0401C77
:100D6000C0F30B001CE0A268F2B301EBC10303EB7C
:100D70000116431EB3FBF6F35B1C43F480431B05D3
:100D800049D092B301EBC10202EB0111401EB0FB4E
:100D9000F1F0401CC0F30B0040F4804040F40040F0
:100DA0002168CA694CF6FF739A431043C861D4E9BD
:100DB000071001432068026822F0C002114301605D
:100DC000D4E9030101432068826848F2FF339A4363
:100DD00011438160D4E9050108432168CA6822F003
:100DE000FF021043C86001E00EE016E020680168D1
:100DF00041F0010101602564202084F83D00256355
:100E000084F83E50002070BD01EB4106431EB3FB49
:100E1000F6F35B1CB3E70120C2E701EB4101401E82
:100E2000B0FBF1F0401CC0F30B00B7E7A086010057
:100E300080841E0000093D0040420F002DE9FF4F55
:100E400083B00025DDE910799A4693460446DDF823
:100E500048800095FFF70EFF064694F83D002028D5
:100E60007CD11923012285492046009600F06CFFB1
:100E70000028F5D194F83C0001286FD0012084F8B7
:100E80003C0020680168C90703D1016841F00101F5
:100E900001602068016821F400610160222084F86B
:100EA0003D00402084F83E0025646762A4F82A9043
:100EB000608D20857248E062CDE9008653465A462F
:100EC0002046049900F02EFE00287DD1208DDFF809
:100ED000B491202768B1012814D002282068016845
:100EE0001ED041F4806101602068416980690090F2
:100EF000B6E02068416981690091016841F40071A0
:100F00000160ADE02068016821F48061016072B683
:100F10002068416981690091016841F400710AE02B
:100F200041F40061016072B62068416981690091F5
:100F3000016821F48061016062B691E0032868D8FD
:100F400001280CD0022843464FF0000249462046B3
:100F500000960FD000F0F8FEB0BB10E08BE03246F8
:100F60004146204600F06FFF70BB20680069616A4F
:100F700008706CE000F0E8FE30BB72B634E0206828
:100F8000016821F48061016072B620680069616ABD
:100F90000870606A401C6062208D401E2085608D54
:100FA000401E6085384846F2A8110068B0FBF1F099
:100FB000C0EBC00000EB80000090401E009008D005
:100FC00020684069C04300E029E040070CD5009844
:100FD000F3E744F8305F6773A573206940F02000A1
:100FE000206162B625731AE02068016841F400713F
:100FF000016020680069616A0870606A401C606274
:10100000218D491E2185618D491E618562B6216849
:101010001BE032464146204600F015FF18B1012082
:1010200007B0BDE8F08F20680069616A0870606AE7
:10103000401C6062218D491E2185618D491E61859C
:1010400021684A69D24352070AD409690170606A6B
:10105000401C6062208D401E2085608D401E608592
:10106000208D00287FF46AAF84F83D7084F83E50EC
:1010700084F83C50D4E70220D2E7000002001000C0
:101080000000FFFF04000100180000202DE9FF4FC1
:1010900083B09A46DDE9119793460446DDF8408017
:1010A000FFF7E8FD054694F83D0020287FD119237D
:1010B000012240492046009500F046FE002876D1E6
:1010C00094F83C00012872D0012084F83C0020688C
:1010D0000168C90703D1016841F00101016020687E
:1010E000016821F400610160212084F83D00402066
:1010F00084F83E0000262664C4F82480A4F82A90D0
:10110000608D20852C48E062CDE9007553465A4633
:101110002046049900F084FD70B930E02A46394633
:10112000204600F0C3FE58B1206C042804D120688A
:10113000016841F400710160012007B0BDE8F08F43
:10114000606A216800780861606A401C6062218DD5
:10115000491E89B22185628D521E628522685369BB
:10116000DB435B070BD469B100781061606A401CF7
:101170006062208D401E2085608D401E6085208D20
:101180000028CBD12A463946204600F0B7FD00287A
:10119000CAD154F83D0B016841F400710160202070
:1011A00004F81E09E67766770020C6E7FFE702200D
:1011B000C3E70000020010000000FFFF10B5006848
:1011C000094988420FD10948C16921F48001C161F0
:1011D000074C01152046FFF7BBFBE1142046BDE894
:1011E0001040FFF7B5BB10BD005800400010024092
:1011F000000C01402DE9F04186B0002100910191E1
:101200000291039100681649884226D1154CA069C5
:1012100040F00800A061A069032700F00800CDE9B4
:1012200003704FF440651226DFF83C80CDE900568C
:1012300069464046FFF71CFCE06940F48000E0612D
:10124000E069009500F48000049001200397CDE947
:10125000016069464046FFF70BFC06B0BDE8F0812F
:101260000058004000100240000C01400248816814
:1012700002781144816070470C000020074810B5C7
:10128000016841F010010160032000F075F80F20A3
:1012900000F006F800F024F8002010BD0020024005
:1012A00070B50D4D04464FF47A712878B1FBF0F01B
:1012B0000A490968B1FBF0F000F0F0FB48B9102CC6
:1012C00007D200222146501E00F036F800206C6044
:1012D00070BD012070BD00000C000020180000202F
:1012E0000C4808B5816941F001018161816901F013
:1012F00001010091C16941F08051C161C06900F0F4
:10130000805000900448416821F0E06141F0007194
:10131000416008BD0010024000000140002809DBC8
:1013200000F01F02012191404009800000F1E020FF
:10133000C0F8001170470000F0B40E4B1B680C465B
:10134000C3F30223C3F10705042D00D90425191D99
:10135000072901D2002300E0DB1E012606FA05F171
:10136000491E214099409E40761E16403143F0BCF4
:1013700000F0A2BE0CED00E0064900F0070208688C
:101380004FF6FF03184040EA0220034A104308606A
:10139000704700000CED00E00000FA0510B52CA429
:1013A00001461DCC86B08DE81D002DA02D4C006897
:1013B0000490002004292FD00BDC01292FD0022912
:1013C00028D100F071F96168C1F38131491C4900ED
:1013D0001EE0082920D010291CD161682268D201A2
:1013E00018D5C1F38342C9031DF8020009D561680D
:1013F00004AAC1F34041515C1B4AB2FBF1F14843DE
:1014000001E01A4948436168490203D440000321BE
:10141000B0FBF1F006B010BD00F056F9FAE7226A11
:10142000C2F30121012903D1920701D5C803F1E7D5
:10143000022905D1626A920702D549F64040E9E7E0
:101440000329E7D121688903E4D54FF22440E1E77D
:1014500002030405060708090A0B0C0D0E0F1010F5
:10146000010200000010024000127A0000093D0055
:101470002DE9F84305460078354CC00754D0E069A3
:101480000026C00008D4E06940F08050E061E069C7
:10149000012600F0805000902E480168C90512D442
:1014A0000168804641F480710160FFF7E3FB074665
:1014B00005E000BFFFF7DEFBC01B642823D8D8F887
:1014C0000000C005F6D5206A10F4407021D0A9882C
:1014D00001F4407181421CD0206A1F49012220F48E
:1014E00040700A6000220A602062C00711D0FFF736
:1014F000C1FB074641F2883808E000BFFFF7BAFB9E
:10150000C11B414502D90320BDE8F883206A80074A
:10151000F4D5206A696820F44070084320621EB147
:10152000E06920F08050E0612878800705D5606888
:10153000A96820F44040084360602878C00605D5BB
:101540006068696920F48000084360600020DBE780
:101550000010024000700040400442422DE9F04774
:101560000F46050061D0434E306800F00700B842D6
:1015700009D2306820F0070038433060306800F04E
:101580000700B84251D128683B4C810712D540076B
:1015900003D5606840F4E06060602878000703D5F8
:1015A000606840F4605060606068A96820F0F000F6
:1015B000084360602878C00728D06868012810D0E8
:1015C0002168022810D0890700292EDA616821F0ED
:1015D000030101436160FFF74DFB804641F288390A
:1015E0000DE021688903EFE78901EDE7FFF742FB92
:1015F000A0EB0801494502D90320BDE8F0876068E7
:10160000696800F00C00B0EB810FEFD1306800F09A
:101610000700B8420BD9306820F00700384330602B
:10162000306800F00700B84201D00120E5E72878D3
:10163000400705D56068E96820F4E0600843606011
:101640002878000706D56068296920F4605040EAD0
:10165000C100606000F038F86168084AC1F3031106
:10166000515CC8400649086006480068FFF718FE4C
:101670000020C2E70020024000100240542400086D
:10168000180000201000002004480549006849683F
:10169000044AC1F30221515CC84070471800002081
:1016A00000100240642400080448054900684968A5
:1016B000044AC1F3C221515CC840704718000020A1
:1016C000001002406424000812A185B00FC98DE803
:1016D0000F0014A0144A006804905168134801F0E8
:1016E0000C03042B10D0082B0ED1C1F38343C90384
:1016F0001DF803000AD5516804AAC1F34041515CAA
:101700000A4A5043B0FBF1F005B07047084948431E
:10171000FAE7000002030405060708090A0B0C0D8E
:101720000E0F1010010200000010024000127A009B
:1017300000093D0030B585B00020029002200190E4
:10174000032003900B4C4FF480700090A0690D466D
:1017500040F00400A061A069694600F00400049014
:101760000548FFF785F9606820F0E0602843606075
:1017700005B030BD00100240000801402DE9F84FCF
:10178000040070D02078C04DC00749D06868C0F30D
:101790008100012807D06868C0F38100022809D1C0
:1017A0006868C00306D52868800339D560680028BA
:1017B000E7D035E06068B0F5803F0BD010B1B0F5F0
:1017C000A02F11D0286820F480302860286820F4E9
:1017D000802002E0286840F480302860606890B182
:1017E000FFF748FA06460AE0286840F4802028609F
:1017F000F0E700BFFFF73EFA801B642873D8286823
:101800008003F7D50CE0FFF735FA064605E000BF88
:10181000FFF730FA801B6428F0D828688003F7D4DB
:1018200020789A4E80074FF001094FF0000839D513
:10183000686810F00C0F07D06868C0F381000228B8
:1018400009D16868C00306D42868800714D52069C8
:10185000012808D110E02069B0B1C6F80090FFF768
:1018600009FA074605E00AE1FFF704FAC01B02285F
:10187000C4D828688007F7D52868616920F0F80087
:1018800040EAC10028600DE0C6F80080FFF7F2F9D9
:10189000074604E0FFF7EEF9C01B022823D82868AA
:1018A0008007F7D4207800072CD57948A169D9B1F1
:1018B000C0F80090FFF7DEF9074604E0FFF7DAF919
:1018C000C01B02280FD8686A8007F7D571484FF40B
:1018D000FA510068B0FBF1F0009000BF0098411E83
:1018E0000091FAD20EE080E0C0F80080FFF7C2F964
:1018F000074604E0FFF7BEF9C01B022875D8686AE6
:101900008007F7D42078400760D5E8690027C00039
:1019100008D4E86940F08050E861E869012700F0E8
:10192000805000905C480168C90513D40168834663
:1019300041F480710160FFF79DF9824606E000BF27
:10194000FFF798F9A0EB0A0064284ED8DBF80000F6
:10195000C005F5D5E06801280AD008B1052813D0E4
:10196000286A20F001002862286A20F0040002E0C2
:10197000286A40F001002862E06841F2883B98B193
:10198000FFF778F982460BE0286A40F004002862ED
:10199000EEE700BFFFF76EF9A0EB0A0159455AD8F0
:1019A000286A8007F6D50CE0FFF764F9824605E067
:1019B000FFF760F9A0EB0A0159454CD8286A800767
:1019C000F6D41FB1E86920F08050E861E06988B37F
:1019D0006968C1F38101022944D00228C6F86080F9
:1019E00004D0FFF747F9044638E034E0FFF742F946
:1019F000074604E0FFF73EF9C01B02282BD82868F1
:101A00008001F7D4206AB0F5803F05D16868A168ED
:101A100020F4003008436860D4E90801084369688D
:101A200021F4741108436860C6F86090FFF722F94A
:101A3000044606E025E000BFFFF71CF9001B022862
:101A400009D828688001F7D51BE000BFFFF712F91D
:101A5000001B022802D90320BDE8F88F2868800106
:101A6000F4D40EE00128F7D06868226A00F48031CF
:101A7000914204D1616A00F47010884201D00120C3
:101A8000EAE70020E8E700000010024000004242C0
:101A900080044242180000200070004010B5401E33
:101AA000B0F1807F01D3012010BD4FF0E0246061D0
:101AB0000F21601700F000FB0020A06107202061CB
:101AC000002010BDFEE701684A69D24352050FD4D9
:101AD0006FF480624A61002140F8301F2022427377
:101AE0008173026942F004020261017301207047B0
:101AF000002070471FB50022039240F6B83402233D
:101B000003AA8DE81C000A46014601230448FFF79A
:101B100095F900B1FEE7BDF80C0004B040BA10BD65
:101B20004C0000202DE9F84F0446006889460B9DC3
:101B300001689846174641F4806101602068016899
:101B400041F48071016000954FF0011B002259465D
:101B500020460A9B00F0F8F84FF4007A40B1206864
:101B60000068C00501D5C4F840A00320BDE8F88F87
:101B7000216809F0FE0008612B46284920460A9A90
:101B800000F016F9F0BB20684169806900902A4690
:101B900020460A9900F08AF940B1206C04283AD115
:101BA0002068016841F40071016034E0FEB2B8F1D0
:101BB000010F09D02168380A08612A4620460A998F
:101BC00000F074F90028E8D1206806612A46204612
:101BD0000A9900F06BF90028DFD12068016841F410
:101BE0008071016000950022594620460A9B00F052
:101BF000ABF80028B3D1216809F0FF0040F00100E4
:101C0000086100E007E02B46044920460A9A00F0EC
:101C1000CFF80028AAD00120A8E7000002000100A8
:101C20002DE9F843044600680D46DDE90897016890
:101C30009846164641F4807101604B4600224FF0F1
:101C400001112046009700F07FF848B12068006835
:101C5000C00502D54FF4007020640320BDE8F8836E
:101C6000216805F0FE0008613B464A4615492046BA
:101C700000F09EF888B920684169806900903A4672
:101C80004946204600F012F948B1206C042804D1DE
:101C90002068016841F4007101600120DEE7F5B2BF
:101CA000B8F1010F09D02168300A08613A46494667
:101CB000204600F0FBF80028E7D1206805610020ED
:101CC000CCE70000020001001FB500230393130AB4
:101CD0008DF80C308DF80D2040F6B834022303AA9D
:101CE0008DE81C000A46014601230348FFF7CEF9A0
:101CF000002800D0FEE71FBD4C00002070B516463E
:101D00000D4604460DE02046FFF7DDFE08B1012038
:101D100070BD681C05D0FEF7ADFF801BA84207D838
:101D200035B120684069C0434007ECD4002070BD45
:101D3000002044F8300F20216173A073216941F025
:101D4000200121612073E2E72DE9F0471E4690460D
:101D50000D460446C1F30747DDF8209008E0701CEB
:101D600006D0FEF787FFA0EB0900B0420FD876B18E
:101D70002068012F18D0806925EA00000004000CBB
:101D800014D000214145EAD00020BDE8F0870020B2
:101D900044F8300F20216173A073216941F02001C4
:101DA000216120730120F0E74069E5E70121E9E7BF
:101DB0002DE9F0479A4691460E46044600254FF01D
:101DC0002008C1F3074725E020684069C04340056B
:101DD00014D42068016841F40071016021686FF437
:101DE00080604861256384F83D8084F83E50206C13
:101DF00040F00400206484F83C501FE0B9F1FF3F3C
:101E000008D0FEF737FFA0EB0A0149450CD8B9F11D
:101E1000000F09D02068012F13D0806926EA000046
:101E20000004000C0BD0CFE744F8305F84F80D803D
:101E3000A573206940F02000206125730120BDE8D2
:101E4000F0874069EAE72DE9F041002590460E460B
:101E50000446202717E04069C043C0060CD454F85C
:101E6000301B6FF01000486144F810596777A57770
:101E7000206A2062257717E0FEF7FCFEA0EB080041
:101E8000B04208D83EB120684169C9434906E2D44E
:101E90000020BDE8F08144F8305F6773A5732069C6
:101EA00040F02000206125730120F2E770B516464E
:101EB0000D4604460DE02046FFF705FE08B101205F
:101EC00070BD681C05D0FEF7D5FE801BA84207D860
:101ED00035B120684069C0430006ECD4002070BDD5
:101EE000002044F8300F20216173A073216941F074
:101EF000200121612073E2E710B54FF400421C215C
:101F00005420FFF7E1FE0A20FEF710FD40F2DC52FC
:101F100008215420FFF7D8FE0A2210215420FFF791
:101F2000D3FE41F2020214215420FFF7CDFE00221D
:101F300019215420FFF7C8FE40F20D221B21542026
:101F4000FFF7C2FE1A21BDE8104040F201625420A2
:101F5000FFF7BABE3EB500211148009101910F4A2A
:101F60000291026001248160047301754FF46022C4
:101F70000461C2614160FEF7ADFB08B1FEF739FABA
:101F80000B20CDE90004694605480294FEF7A2FA49
:101F9000002801D0FEF72DFA3EBD000000240140CC
:101FA0001C0000200D4810B50B4901600C49416030
:101FB00000214FF480428160C0E9031241618161D8
:101FC000C1610162FEF776FE002803D0BDE8104033
:101FD000FEF70FBA10BD0000005800404C00002072
:101FE000A0860100FEE7FEE7704700001FB5002055
:101FF000039040F6B832022103A88DE807000123C0
:10200000182254210648FEF719FF20B10448FEF7B4
:1020100037FEFFF7C7FFBDF80C0004B040BA10BD93
:102020004C0000207047FFF721B910B596B0282169
:102030006846FEF7EBF814210AA8FEF7E7F8182126
:102040000FA8FEF7E3F801204FF4A021CDE900012D
:1020500041040490022402910004CDE907404FF4AA
:10206000201009906846FFF789FB08B172B6FEE7B9
:102070000F20CDE90A0400204FF48061CDE90C0166
:102080000E9001210AA8FFF769FA08B172B6FEE7BF
:102090004FF4804011900F940FA8FFF7E9F908B1B1
:1020A00072B6FEE700224FF080611046FFF742FB58
:1020B00016B010BD7047FEE70907090E002804DBC3
:1020C00000F1E02080F80014704700F00F0000F1EC
:1020D000E02080F8141D7047FFF7D0F8FFF7A5FF48
:1020E000FFF760FFFFF736FF284D294CDFF8A4808B
:1020F0004FF4805B01225E4659462846FEF7B4FD48
:10210000FEF75AF9FFF7F8FEFFF770FF00215420A1
:10211000FFF7F0FC2080B042F8D20122D10228461D
:10212000FEF7A2FD002231462846FEF79DFD012262
:1021300004214046FEF798FD002201212846FEF7C3
:1021400093FDFFF707FF1448FEF756F91248FEF714
:1021500087FB124EDFF84890124F6FF00B0A306881
:1021600000F028F8494600F039F8514600F034F9FB
:10217000B842F4DB6060002204214046FEF774FDA3
:10218000012211462846FEF76FFDB3E7001001401B
:1021900000000020001801401C0000200800002062
:1021A0003333534000007F43014800F0E3B800BFE1
:1021B0000000C07FB0FA80F310FA03F2C3F19D0370
:1021C0000AD0D90501EB1220530638BF704700F141
:1021D000010008BF20F00100704700004FF47F0CA1
:1021E0001CEAD0121EBF1CEAD11392EA0C0F93EA2C
:1021F0000C0F00F0478090EA010F48BF42F4807254
:102200004FF0004C4CEA00204CEA012102EB0302A3
:10221000A0FB0113A2F50002002918BF43F001033F
:102220005B0028BF4FEA330342EB22425FEA132CE4
:102230004CEBC2502EBFBCEB436FB2F57C0F704726
:102240004FEA036CBCF1004F08BF20F00100B2F56B
:102250007C0F38BF70470BD582F0FF0212F5803F2C
:10226000C8BF704700F1C040D8BF00F000407047C1
:1022700000F5000C5FEA4C0C48BF7047B0F1C0405D
:1022800000F073B890EA010F0CEAD11348BF42F492
:102290008072624538BF634504D280EA010000F0D5
:1022A0000040704710B500F01AF800BF8900013EE9
:1022B00000F007B800F009B85FEA410C5FEA1C6C57
:1022C00008D080EA010000F050B85FEA400C5FEAF5
:1022D0001C6CF6D14FF00040A0F5800070470EF165
:1022E000020E2EF0030E5EF8044B244204D44FEA93
:1022F0004102B2F17F4F11D84FEA4003B3F17F4F53
:102300000CD80ED14FEAD07CB2F17F4F0CEB4C0CC5
:102310000CF1020C08BF4CEBD17C04E04FF0080C30
:1023200001E04FEAD17C0CEB4C0324FA03F404F0F7
:102330000704B4F1040C06D20EEB840CBDE8104087
:102340004CF0010C6047DFE80CF0070802024FF088
:102350000040A0F5800010BD0846420018BFD2F131
:10236000807288BF00F0004010BDFF2141EAD050CC
:10237000C00570470CF00F03092B08BF082000F0C0
:1023800051800A2B0BD0082B18BF704708BF1CF0D8
:10239000400F0AD04FF000004FF0000170471CF0D2
:1023A000400F18BF4FF0004070471CF0100F08D0CE
:1023B00020F0704300F07F4242EAD3014FEA4370BD
:1023C000704700F0604021F07F4242EA000201F0D5
:1023D0007F4040EA727070474FF0FF0212EAD0521D
:1023E0001CBF92F0FF038B42C2BFD14200EBC15031
:1023F0007047002A0AD0002B0BD0002900F00040C3
:10240000A4BF40F0FE4040F40000704700F00040E0
:10241000704743024FF00B0C18BF4CF0806C7FF4F8
:10242000C3AE70471CF4801F11D01CF4E02F03D002
:102430006FEACC31490070474FF04050EFF3008213
:1024400022F0704242EA000282F3008870474FF0A7
:1024500000007047000000000000000001020304BB
:102460000607080900000000010203048C2400088C
:10247000000000201C0000006C010008A8240008D7
:102480001C000020E4060000880100080000000095
:10249000000000000000000001000000100000002B
:0824A000000000000024F4001C
:0400000508000131BD
:00000001FF
